:020000040800F2
:10000000280D00201D1C0008691500086B1500084C
:100010006D1500086F15000871150008000000003C
:10002000000000000000000000000000751500083E
:100030007315000800000000771500087915000806
:100040007B1500087D1500087F1500088115000844
:100050008315000885150008871500088915000814
:100060008B1500088D1500088F15000891150008E4
:1000700093150008951500089715000899150008B4
:100080009B1500089D1500089F150008A115000884
:10009000A3150008A5150008A7150008A915000854
:1000A000AB150008AD150008AF150008B115000824
:1000B000B3150008B5150008B7150008B9150008F4
:1000C000BB150008BD150008BF150008C1150008C4
:1000D000C3150008C5150008C7150008C915000894
:1000E000CB150008CD150008CF150008D115000864
:1000F000D3150008D5150008D7150008D915000834
:10010000DB150008DD150008DF150008E115000803
:10011000E3150008E5150008E7150008E9150008D3
:10012000EB150008ED150008EF150008F1150008A3
:100130004FF47A700100481E0029FBD1704770B45B
:10014000DFF89C3300240025002201E06D1C521CC6
:100150000A2A14D2B1FBF3F630362654641CB1FBE4
:10016000F3F603FB16110A26B3FBF6F3261816F86E
:10017000016C302EEAD1002DE8D10024E7E770BCF5
:10018000704770B40A000024002100230578302D48
:1001900038D14478782C02D04478582C32D18478E5
:1001A000002C01D100205EE0022404E0255C573DD4
:1001B00015EB0313641C0B2C20D2255C002D02D1FF
:1001C000136001211AE0255C413D062D07D3255C13
:1001D000613D062D03D3255C303D0A2D0DD2255CF3
:1001E000303D0A2D02D2255C303DE1E7255C413DE2
:1001F000062DDBD2255C373DDAE700210B2C31D30D
:1002000000212FE0002405E00A25265C303E05FB96
:100210000363641C0B2C22D2255C002D02D11360D9
:1002200001211CE0255C6B2D02D0255C4B2D05D1F6
:10023000002C03D09B021360012110E0255C6D2D82
:1002400002D0255C4D2D05D1002C03D01B05136079
:10025000012104E0255C303D0A2DD5D300210B2C73
:1002600000D30021080070BC704710B504004FF4A3
:1002700080719C4800F0CDF920219B4800F02CFAB9
:10028000002804D0994800882070012000E0002058
:1002900010BD80B500208DF8000000A8FFF7E5FF35
:1002A0000028FAD09DF8000002BD10B504004FF4FC
:1002B00080718C4800F0AAF9FFF73AFFE4B2210000
:1002C00089B2894800F004FA4021874800F004FA16
:1002D0000028F9D0FFF72CFF4FF48071814800F01F
:1002E00098F910BD10B504004FF480717D4800F0FE
:1002F0008DF9FFF71DFF0BE0217889B27A4800F0F5
:10030000E7F94021784800F0E7F90028F9D0641CAB
:1003100020780028F0D1FFF70BFF4FF4807171486F
:1003200000F077F910BD01B4002000994FF480620D
:10033000B1FBF2F303FB1213002B02D0880A401C1E
:1003400000E0880A01B070472DE9F8430024002539
:10035000012602275FF004085FF0010900F065FB49
:10036000050063480068284061490968884243D015
:1003700000F057FB04005E48006828435C490860B1
:1003800000F011FA81465A48006810F1010F05D0BB
:1003900057480068C04300F0A4FA814614F00700F3
:1003A000072811D0E00700D40026A00700D40027BA
:1003B000600701D45FF00008424692B2390089B26A
:1003C000300080B200F0FDFA5FFA89F9B9F1040F4C
:1003D0000ED14848FFF786FF4748FFF783FF01210A
:1003E0004FF4006000F0A3FC4F2000F0EFFC06E0AB
:1003F0004248FFF777FF02E04148FFF773FFBDE88F
:10040000F18310B500243F480068B0F10060000B94
:100410003D49086001203C4909688840401EC043AE
:100420003349086000F001FB314909680840304950
:100430000968884212D00120344908703448FFF717
:1004400051FF3448FFF74EFF3348FFF74BFF334867
:10045000FFF748FF3248FFF745FF11E000202B4926
:1004600008702B48FFF73EFF2E48FFF73BFF2E4852
:10047000FFF738FF2A48FFF735FF01E000F0AEFC38
:10048000FFF707FF0400E4B2312CF7D0E4B2322CBE
:100490000FD126480068264908602548006825498C
:1004A00008602548006800F021FD22480068804768
:1004B000E6E7E4B2332C06D114480078012802D1D3
:1004C000FFF742FFDCE711480078002803D11B4802
:1004D000FFF708FFD4E71A48FFF704FFD0E7000052
:1004E00000CA9A3B0008014000380140043801402E
:1004F00014050020541B000850160008201A00089C
:10050000A01A00080000002010050020240500208B
:10051000E81600082817000868170008A817000840
:10052000E8170008281800086818000804200008C8
:100530000C0500200805002000200008C41A00084F
:10054000E81A0008F0B40022002600240025002349
:10055000002791F803C01CF00F0C624691F803C00D
:100560005FEACC6C01D58B781A430B781B0621D03F
:100570000368002406E0CD78482D02D10125A5406E
:100580000561641C082C14D20125A5400E882E405C
:10059000AE42F6D1A5000F2616FA05F7BB4312FAB4
:1005A00005F52B43CD78282DE5D10125A5404561E2
:1005B000E7E703600B88FF2B26DD4368002420E07B
:1005C000012514F10806B5400E882E40AE4217D121
:1005D000A5000F2616FA05F7BB4312FA05F52B43C3
:1005E000CD78282D04D1012514F10806B5404561C8
:1005F000CD78482D04D1012514F10806B5400561D8
:10060000641C082CDCD34360F0BC704789B20161E4
:10061000704789B2416170472DE9F04385B004000D
:100620000D000020002600275FF000085FF00009A1
:10063000A146218A08004CF6FF710840E98808436A
:100640002082A0894EF6F3110840A9882A89114317
:100650006A8911430843A081A08A4FF6FF410840F0
:10066000A9890843A08200A800F0F1FA104881454A
:1006700001D1039E00E0029E192000FB06F02968CC
:100680008900B0FBF1F76420B7FBF0F0000101092D
:10069000642202FB11785FEA081132316422B1FB57
:1006A000F2F111F00F010843208105B0BDE8F0839D
:1006B00000380140C9B2002904D0818951F40051A9
:1006C000818104E081894DF6FF721140818170477C
:1006D000C905C90D8180704700220088084201D0F9
:1006E000012200E000221000C0B27047DFF86C1356
:1006F000096811F03801DFF864231160DFF85C133A
:1007000009680843DFF8541308607047DFF84C139A
:10071000096831F01001DFF844231160DFF83C1361
:1007200009680843DFF8341308607047DFF83003C6
:10073000DFF830130860DFF83003DFF828130860B3
:10074000704738B50400042540F6FF7000F0A6F9A4
:100750000500EDB2042D23D1DFF81003006850F03E
:100760000200DFF808130860DFF804030460DFF814
:10077000FC02006850F04000DFF8F012086040F61C
:10078000FF7000F08BF90500EDB2012D08D0DFF805
:10079000DC02006841F6FD710840DFF8D012086005
:1007A0002800C0B232BD10B5042440F6FF7000F03E
:1007B00075F90400E4B2042C53D1DFF8A402DFF889
:1007C000B4120860DFF8A002DFF8A8120860DFF8B2
:1007D0009C02006850F02000DFF890120860DFF8FB
:1007E0008C02006850F04000DFF88012086040F68C
:1007F000FF7000F053F90400E4B2042C25D1DFF8B7
:100800006C02006841F6DF710840DFF86012086092
:10081000DFF85802006850F01000DFF8501208604E
:10082000A520DFF8541208800F2000F037F90400EB
:10083000E4B2012C15D0DFF83402006841F6EF7104
:100840000840DFF8281208600BE0E4B2012C08D061
:10085000DFF81802006841F6EF710840DFF80C126B
:1008600008602000C0B210BD70B505000E00042461
:100870000F2000F013F90400E4B2042C2ED1DFF8AD
:10088000EC01006850F00100DFF8E01108602E80F4
:100890000F2000F003F90400E4B2042C12D1300C54
:1008A00068800F2000F0FAF80400E4B2012C15D0A3
:1008B000DFF8B801006841F6FE710840DFF8AC11BE
:1008C00008600BE0E4B2012C08D0DFF8A00100685A
:1008D00041F6FE710840DFF8941108602000C0B2B4
:1008E00070BD2DE9F0414FF6FF744FF6FF754FF6DE
:1008F000FF764FF6FF775FF00408C04310F0FF016A
:100900000C00C0F307210D00010CC9B20E00000E4F
:1009100007000F2000F0C2F880465FFA88F8B8F1AF
:10092000040F4AD14E48534908604F485149086066
:100930004E48006850F010004C490860A4B2FF2CEB
:1009400005D04E4804800F2000F0A8F880465FFADA
:1009500088F8B8F1040F08D1ADB2FF2D05D0484892
:1009600005800F2000F09AF880465FFA88F8B8F109
:10097000040F08D1B6B2FF2E05D0424806800F20E2
:1009800000F08CF880465FFA88F8B8F1040F08D1BF
:10099000BFB2FF2F05D03C4807800F2000F07EF843
:1009A00080465FFA88F8B8F1010F06D02F4800683A
:1009B00041F6EF7108402D4908604046C0B2BDE8DD
:1009C000F081F8B504000D001600042724482949D9
:1009D00008602548274908600F2000F05FF80700ED
:1009E000FFB2042F1AD12148006850F010001F49AF
:1009F000086055EA0400304350F0F80023490880AD
:100A00000F2000F04BF80700FFB2012F06D0174867
:100A1000006841F6EF710840144908603800C0B220
:100A2000F2BD1B480068800870471A48006870478C
:100A3000042019490968C90701D501200CE01648AE
:100A40000068400701D5022006E013480068C00690
:100A500001D5032000E00420C0B27047002002400E
:100A60002301674504200240AB89EFCD10200240EE
:100A7000142002400820024000F8FF1F08F8FF1F62
:100A80000AF8FF1F0CF8FF1F0EF8FF1F02F8FF1FE8
:100A90001C200240202002400C20024038B50400F7
:100AA0000425FFF7C5FF050005E000F00FF8FFF78C
:100AB000BFFF0500641EEDB2012D01D1002CF4D161
:100AC000002C00D105252800C0B232BD81B0002025
:100AD0000090FF20009002E00098401E00900098D7
:100AE0000028F9D101B07047DFF8A802006850F083
:100AF0000100DFF8A0120860DFF89C020068DFF850
:100B00009C120840DFF890120860DFF88802006845
:100B1000DFF88C120840DFF87C120860DFF87402FE
:100B2000006830F48020DFF86C120860DFF868029B
:100B3000006830F4FE00DFF8601208600020DFF883
:100B4000641208607047DFF84C12096831F4803194
:100B5000DFF840221160DFF83C12096831F480218F
:100B6000DFF830221160B0F5803F03D0B0F5802F60
:100B700009D011E0DFF81C02006850F48030DFF883
:100B80001412086008E0DFF80C02006850F4A0209E
:100B9000DFF800120860FFE7704780B50020009082
:100BA00000200021312000F0D2F801000098401C04
:100BB0000090C9B2002903D10098B0F5A06FF1D11F
:100BC000312000F0C4F8002801D0012000E000200E
:100BD000C0B202BD0022704B1B681A0032F47C12B6
:100BE000084302436C4802607047C0B26E49086017
:100BF00070470021684A1268110089088900014382
:100C00006548016070476448006810F00C00704748
:100C10000021614A1268110031F0F00101435E4881
:100C20000160704700215C4A1268110031F4E061F4
:100C300001435948016070470021574A126811006A
:100C400031F4605151EAC00153480160704730B43B
:100C500000220021002300244F4D2D6815F00C05C3
:100C60002A00002A04D0042A05D0082A06D021E050
:100C70004F49016020E04E4901601DE04649096886
:100C800011F47011890C891C434A126812F48033E4
:100C9000002B03D1474A514301600AE03E4A1268E3
:100CA000920303D5434A5143016002E0404A514355
:100CB000016001E03E4901603749096811F0F00226
:100CC00012093D49545C0168E140416032490968BC
:100CD00011F4E062120A3849545C4168E1408160D5
:100CE0002D49096811F46052D20A3349545C4168B5
:100CF000E140C1602849096811F44042920B2F4934
:100D0000545CC168B1FBF4F1016130BC7047C9B2F9
:100D1000002905D02A49096808432949086005E0E7
:100D20002749096831EA0000254908607047C9B2BF
:100D3000002905D02349096808432249086005E0D5
:100D40002049096831EA00001E490860704710B464
:100D5000002200230021C0B24409E4B22200012A8B
:100D600002D10C490B6806E0022A02D10F490B6838
:100D700001E015490B68C0B210F01F0233FA02F00F
:100D8000C00701D5012100E000210800C0B210BC5D
:100D90007047000000100240041002400000FFF8FD
:100DA000FFFFF6FE081002406000424220100240A1
:100DB00000127A0000093D00F41B0008381C0008EE
:100DC000181002401C10024024100240C0B250F023
:100DD0008000014908607047002C004010B584B0C5
:100DE00000A823490A2200F0B3F800242148FFF7A5
:100DF00079FA214800F074F90400012C1EDB1F4829
:100E00000100481E0029FBD11D48FFF76BFA1D4861
:100E1000FFF768FA210000A8FFF791F91A48FFF7D9
:100E200061FA00A8FFF75EFA1848FFF75BFA184866
:100E3000FFF758FA1748FFF755FA17E014F1010FBA
:100E400003D11548FFF74EFA10E014F1020F03D159
:100E50001248FFF747FA09E014F1030F03D11048D5
:100E6000FFF740FA02E00F48FFF73CFA1FBD00BF52
:100E7000041C00089C1600080800002040420F00D7
:100E8000F415000808040020101C0008281C0008A5
:100E90000C1B0008E8190008A8180008941B00089B
:100EA0004C1A0008741B000830BF704720BF704701
:100EB00040BF7047BFF36F8F7047BFF34F8F7047CE
:100EC000BFF35F8F704701DF7047EFF31480704707
:100ED00080F31488BFF36F8F7047EFF3098070477A
:100EE00080F309887047EFF30880704780F3088823
:100EF000704762B6704772B67047EFF31080704764
:100F000061B6704771B67047EFF31380704780F396
:100F100011887047EFF31280704740BA704700BAEB
:100F2000704710B450F8041B81B102681218001DFC
:100F300050F8043BDC0744BFA9F10104E31852F860
:100F4000044B43F8044B091FF9D1EBE710BC704781
:100F500062B38B0708D0521E11F8013B00F8013B29
:100F600000F024808B07F6D1830740F0208000BF7B
:100F7000103A07D330B4B1E83810103AA0E838106E
:100F8000F9D230BC530724BFB1E80810A0E808101C
:100F900044BF51F8043B40F8043BD20724BF31F86A
:100FA000022B20F8022B44BF0B7803707047083ADD
:100FB00007D3B1E80810083A40F8043B40F804CBE6
:100FC000F7D25307E4E750F8041B61B150F8042B43
:100FD000D30744BFA9F101039A18002342F8043B48
:100FE000091FFAD1EFE7704738B504000D0028005B
:100FF000451E002806D02000FFF737F90128F6D15A
:10100000002001E05FF0FF3032BD80B5C0B2FFF7D5
:101010004CF9002002BD2DE9F04182B005000C0022
:10102000160000202060310000A8FFF7DDFF002837
:1010300002D05FF0FF3051E09DF8000001280AD097
:1010400002280FD0042810D0182810D0412820D012
:1010500061281ED01FE080279DF8000028705FF0F7
:1010600001081DE04FF48067F6E7002036E031000C
:1010700000A8FFF7B9FF002808D19DF80000182844
:1010800004D15FF0FF302060002027E05FF0FF30E8
:1010900024E0012022E05FF0FF301FE018F101089A
:1010A0001FFA88F8BFB2781D80450BDA31001FFAAD
:1010B00088F818EB0500FFF797FF0028EED05FF0E7
:1010C000FF300BE06878A97891F0FF01884202D0E8
:1010D0005FF0FF3002E0BFB227600020BDE8F6817C
:1010E0002DE9F047ADF5846D0500002000908B4898
:1010F0008B49086000265FF000085FF0000A0027B7
:101100005FF000092C005FF4801201A906A8FFF728
:1011100082FF002803D0012800F0D780DEE05FF0D6
:1011200000080198002807D0B0F1FF3F0AD106203F
:10113000FFF76BFF0020ECE00620FFF766FF5FF093
:101140000109C1E09DF81900F9B2884203D01520C9
:10115000FFF75BFFB8E0002F75D19DF81B0000285A
:101160006AD05FF0000A0DF11B0006E001786D4ABD
:101170000AF80210401C1AF1010A0178002902D075
:10118000BAF1FF0FF2DD0021664A0AF802101AF1E7
:10119000010A00218A46401C06E0017802AA0AF8EA
:1011A0000210401C1AF1010A0178202902D0BAF17C
:1011B000100FF2DB002002A90AF801001AF1010A5F
:1011C00000A902A8FEF7DDFF00985749884208DB16
:1011D0001820FFF71AFF1820FFF717FF5FF0FF3006
:1011E00097E00098FFF79FF85049086000205049A9
:1011F000086010E04A4800684E4909884C4A126865
:1012000002FB0100FFF79DFA4B490870484800684F
:10121000401C4749086046480068444909688842BC
:1012200003D2454800780428E4D00620FFF7EDFEFD
:101230004320FFF7EAFE44E00620FFF7E6FE5FF0FA
:101240000109012640E0019A0DF11B012000FFF782
:101250007FFE3A4805605FF0000A0BE03048006806
:10126000001D2F49086035480068001D334908609B
:101270001AF1040A0198824520DA29480068009989
:1012800001F1006111F50051884217D22B48006826
:10129000016823480068FFF7E7FA21480068006802
:1012A0002649096809688842D8D01820FFF7ADFEA2
:1012B0001820FFF7AAFE7FF001002AE00620FFF7C2
:1012C000A4FE7F1C5FF0010A1BE01820FFF79DFEC3
:1012D0001820FFF79AFE7FF002001AE0BAF1010F22
:1012E00001DB18F10108B8F1060F07DB1820FFF742
:1012F0008CFE1820FFF789FE00200AE04320FFF74C
:1013000084FEB9F1000F3FF4FEAE002E3FF4F7AEBD
:1013100000980DF5846DBDE8F087000000200008FE
:101320000000002008040020000002081C05002026
:1013300018050020040000200600002020050020E1
:101340000021010004E0401E80B20028FBD1491EAC
:1013500089B2002902D04FF47A70F5E7704710B5D2
:1013600082B000208DF80000FFF7E0F900F042F8AD
:101370006F48FEF7B7FF6F48FEF7B4FF6E48FEF701
:10138000B1FF6E48FEF7AEFF6948FEF7ABFF6C4851
:10139000FEF7A8FF00240FE000A8FEF766FF002874
:1013A00006D09DF800007A2802D1FFF72AF86524BC
:1013B0006420FFF7C5FF641CE4B2642CECDB6148D9
:1013C000006861490840B0F1005F12D101215F4817
:1013D000FFF71FF95E4800685E4908605D480068D5
:1013E0005D49086057480068FFF780FD5A4800686B
:1013F0008047FEE700B585B000F05BF80120ADF84E
:10140000000003208DF8020010208DF8030000A9D1
:101410004E48FFF797F801214C48FFF7FAF81820DB
:101420008DF803004FF40070ADF8000003208DF834
:10143000020000A94948FFF785F804208DF8030051
:1014400003208DF802004FF48060ADF8000000A981
:101450004248FFF777F801213C48FFF7D7F8102002
:101460008DF803004FF48070ADF8000003208DF874
:10147000020000A93948FFF765F84FF49640019043
:101480000020ADF808000020ADF80A000020ADF8FB
:101490000C000020ADF810000C20ADF80E0001A9E2
:1014A0002F48FFF7B9F801212D48FFF703F905B0E0
:1014B00000BD80B5FFF718FB5FF48030FFF743FBFA
:1014C000FFF76BFB2749087026480078012824D1D4
:1014D0001020FFF71BF90220FFF708F90020FFF7A3
:1014E00097FB0020FFF7A8FB4FF48060FFF79AFB03
:1014F0005FF4E0115FF48030FFF76CFB0120FFF731
:1015000074FB3920FFF723FC0028FAD00220FFF7F4
:1015100070FBFFF778FB0828FBD101210C20FFF7B7
:10152000F6FB01214FF48040FFF7F1FB01BD000005
:10153000E81800082819000868190008A819000808
:10154000301C0008002000080000FE2F000C0140A5
:10155000042000080C0500200805002000080140B8
:1015600000380140250500207047FEE7FEE7FEE752
:10157000FEE7704770477047704770477047704785
:1015800070477047704770477047704770477047A3
:101590007047704770477047704770477047704793
:1015A0007047704770477047704770477047704783
:1015B0007047704770477047704770477047704773
:1015C0007047704770477047704770477047704763
:1015D0007047704770477047704770477047704753
:1015E0007047704770477047704770477047704743
:1015F000704700000D204669726D77617265206842
:101600006173206265656E207375636365737366CD
:10161000756C6C79207570677261646564210A0D60
:101620002D2D2D2D2D2D2D2D2D2D2D2D2D2D2D2DEA
:101630002D2D2D2D2D2D2D2D2D2D2D2D2D2D2D2DDA
:101640000D0A2045646974696F6E3A20000000003D
:101650002E2E2E616E6420612053797374656D2087
:1016600052657365742077696C6C206265206765CC
:101670006E65726174656420746F2072652D6C6F85
:10168000616420746865206E6577206F7074696F7F
:101690006E2062797465730D0A00000057616974E9
:1016A000696E6720666F7220746865206E657720AA
:1016B0006669726D776172652066696C6520746F0A
:1016C000206265207472616E736665727265642053
:1016D0002850726573732027612720746F207374FC
:1016E0006F70290A0D0000000D0A3D3D3D3D3D3D56
:1016F0003D3D3D3D3D3D3D3D3D3D3D3D3D3D204D27
:1017000061696E204D656E75203D3D3D3D3D3D3D21
:101710003D3D3D3D3D3D3D3D3D3D3D3D3D3D3D3DF9
:101720003D3D3D3D0D0A0A002020446F776E6C6FF1
:10173000616420496D61676520546F20746865207D
:1017400053544D33324631307820496E7465726E91
:10175000616C20466C617368202D2D2D2D2D2D2D53
:1017600020310D0A0A000000202045786563757459
:101770006520546865204E65772050726F677261EE
:101780006D202D2D2D2D2D2D2D2D2D2D2D2D2D2D56
:101790002D2D2D2D2D2D2D2D2D2D2D2D2D2D2D2D79
:1017A00020320D0A0A000000202044697361626C37
:1017B00065207468652077726974652070726F7433
:1017C000656374696F6E202D2D2D2D2D2D2D2D2DE2
:1017D0002D2D2D2D2D2D2D2D2D2D2D2D2D2D2D2D39
:1017E00020330D0A0A0000003D3D3D3D3D3D3D3D9D
:1017F0003D3D3D3D3D3D3D3D3D3D3D3D3D3D3D3D19
:101800003D3D3D3D3D3D3D3D3D3D3D3D3D3D3D3D08
:101810003D3D3D3D3D3D3D3D3D3D3D3D3D3D3D3DF8
:101820003D3D0D0A0A00000020204578656375746F
:101830006520546865204E65772050726F6772612D
:101840006D202D2D2D2D2D2D2D2D2D2D2D2D2D2D95
:101850002D2D2D2D2D2D2D2D2D2D2D2D2D2D2D2DB8
:1018600020310D0A0A000000202044697361626C77
:1018700065207468652077726974652070726F7472
:10188000656374696F6E202D2D2D2D2D2D2D2D2D21
:101890002D2D2D2D2D2D2D2D2D2D2D2D2D2D2D2D78
:1018A00020320D0A0A0000000A0A0D5468652069FA
:1018B0006D6167652073697A65206973206869675F
:1018C000686572207468616E2074686520616C6C54
:1018D0006F776564207370616365206D656D6F72ED
:1018E00079210A0D000000000D0A2D2D2D2D2D2D22
:1018F0002D2D2D2D2D2D2D2D2D2D2D2D2D2D2D2D18
:101900002D2D2D2D2D2D2D2D2D2D2D2D2D2D2D2D07
:101910002D2D2D2D2D2D2D2D2D2D2D2D2D2D2D2DF7
:101920002D2D2D2D000000000D0A2020202020202C
:101930002020202020202020436F727465782D4DB8
:10194000332053797374656D20557064617465201C
:1019500056312E3020202020202020202020202022
:1019600020202020000000000D0A20204E6F74650A
:101970003A2074686973206F7065726174696F6E64
:101980002077696C6C207570677261646520796F6F
:1019900075722073797374656D206669726D7761F5
:1019A00072652120000000000D0A20202020202048
:1019B0002020202020202020202020202020202027
:1019C0002020202020202020202020202020202017
:1019D00020202020202D2D5A6875616E674C694D9E
:1019E000696E6720000000000A0D50726573732055
:1019F00027322720746F206A756D7020746F2075F0
:101A000073657220617070206F72202731272075F6
:101A1000706461746520616761696E0A0D00000081
:101A20004572726F723A20466C61736820777269F2
:101A3000746520756E70726F74656374696F6E2063
:101A40006661696C65642E2E2E0D0A000D0A5573B1
:101A50006572207465726D696E6174696F6E214381
:101A6000616E20636F6E74696E756520746F20659A
:101A70006E746572210A0D0010B50749794418315A
:101A8000064C7C44163404E00A68081D5118884747
:101A90000146A142F8D110BD98000000B800000036
:101AA000466C617368206D656D6F7279206E6F741E
:101AB0002077726974652070726F746563746564F1
:101AC0000D0A00004572726F7220696E7075742C79
:101AD00020706C6561736520656E746572203120BD
:101AE0006F7220320D0000004572726F7220696EB5
:101AF0007075742C20706C6561736520656E7465FB
:101B00007220312C32206F7220330D000A0D2D2DE2
:101B10002D2D2D2D2D2D2D2D2D2D2D2D2D2D2D2DF5
:101B20002D2D2D2D2D2D2D2D2D2D2D2D2D2D00003F
:101B300097F4FFFF200500000800002000000000CF
:101B4000E3F3FFFF08000000F400000000000020A5
:101B50000000000057726974652050726F746563ED
:101B600074696F6E2064697361626C65642E2E2ED9
:101B70000D0A00000A0D4661696C656420746F20CF
:101B800072656365697665207468652066696C6551
:101B9000210A0D000A0A0D5665726966696361744F
:101BA000696F6E206661696C6564210A0D00000032
:101BB00000F00BF8002801D0FFF75EFF0020C046C0
:101BC000C046FFF7CCFB00F002F80120704700F0A0
:101BD00001B800000746384600F002F8FBE70000B5
:101BE00080B5C046C046024A11001820ABBEFBE7D4
:101BF00026000200000000000102030401020304A9
:101C00000607080920202020202020202020000076
:101C10000A0D2053697A653A20000000C046C0468C
:101C2000C046C046FFF7C4FF2042797465730000C8
:101C30000D0A0D0A0000000002040608002000083A
:041C40000004040098
:0400000508001C1DB6
:00000001FF
